:020000040800F2
:1000000010040020AD0100080D02000809020008DC
:100010000B020008F50100086D0200080000000056
:1000200000000000000000000000000011020008B5
:10003000F7010008000000000F020008130200088A
:10004000C7010008C7010008C7010008C701000870
:10005000C7010008C7010008C7010008C701000860
:10006000C7010008C7010008C7010008C701000850
:10007000C7010008C7010008C7010008C701000840
:10008000C7010008C7010008C70100080000000000
:10009000000000000000000000000000C701000890
:1000A000C7010008C7010008C7010008C701000810
:1000B000C7010008C7010008C7010008C701000800
:1000C000C7010008C7010008C7010008C7010008F0
:1000D000C7010008C7010008C701000800000000B0
:1000E000C7010008C7010008C701000800000000A0
:1000F000000000000000000000000000C701000830
:1001000000000000C7010008C7010008C70100087F
:1001100000000000000000000000000000000000DF
:10012000C7010008C7010008C7010008C70100088F
:10013000C7010008000000000000000000000000EF
:10014000000000000000000000000000C7010008DF
:10015000C7010008C7010008C7010008C70100085F
:10016000C7010008C70100080000000000000000EF
:10017000000000000000000000000000000000007F
:1001800000000000C701000800000000000000009F
:10019000C7010008C7010008DFF80CD000F018F80C
:1001A000004800478D0200081004002006488047E0
:1001B00006480047FEE7FEE7FEE7FEE7FEE7FEE74C
:1001C000FEE7FEE7FEE7FEE71902000899010008D6
:1001D000064C074D06E0E06840F0010394E8070094
:1001E00098471034AC42F6D3FFF7DAFF9C020008C0
:1001F000BC020008FEE7704702488168027811449B
:100200008160704700000020FEE7FEE770477047FE
:100210007047FFF7F1BF00001048016841F470011A
:1002200001600F48016841F0010101600C4A0021A2
:100230000832116002680B4B1A400260031D0A4A23
:100240001A60026822F48022026005480C300160C6
:1002500002495806803908607047000088ED00E0C8
:1002600000380240FFFFF6FE10300024FEE702E0F7
:1002700008C8121F08C1002AFAD170477047002031
:1002800001E001C1121F002AFBD17047024800683B
:100290000028FDD0FEE700002C010020BC02000871
:1002A000000000200C0000006E020008C8020008D8
:1002B0000C000020040400007E0200080100000081
:0802C000100000000000000026
:040000050800019955
:00000001FF
