:020000040800F2
:1000000008040020D5000008FB000008FD000008DF
:1000100000000000000000000000000000000000E0
:10002000000000000000000000000000930A00082B
:100030000000000000000000910A0008950A000876
:100040000501000805010008050100080501000878
:10005000050100080501000805010008A1010008CC
:100060000501000805010008050100080501000858
:100070000501000805010008050100080501000848
:100080000501000800000000000000000501000854
:100090000000000005010008050100080501000836
:1000A0000000000005010008050100080501000826
:1000B0000501000800000000050100080501000816
:1000C0000348854600F05AF800480047570B0008DF
:1000D000080400200C4880F308880C480168090EC9
:1000E0000B4A914205D10B480B4901600B480C4962
:1000F00001600C4880470C480047FEE7FEE7FEE73A
:10010000FEE7FEE7FEE70000080400200400000010
:100110001F00000018100240010000000000014014
:1001200000000000DD0A0008C100000830B50B46E1
:10013000014600202022012409E00D46D5409D42C1
:1001400005D31D469540491B254695404019154647
:10015000521E002DF1DC30BDD2B201E00270401C15
:10016000491EFBD270470022F6E710B513460A4637
:1001700004461946FFF7F0FF204610BD064C012546
:10018000064E05E0E36807CC2B430C3C984710343F
:10019000B442F7D3FFF798FF740B0008940B0008E4
:1001A00010B5102000F002F810BD704710B50449DA
:1001B0004A69024202D04861FFF7F7FF10BD000014
:1001C00000040140F8B5002389E001249C402A4640
:1001D000A44622407ED04C68022C01D0122C0CD1B7
:1001E000DC08A40027183C6A5D07ED0E0F26AE4020
:1001F000B4430E69AE4026433E6205685E000324A8
:10020000B4400F79A543BF07BF0FB7402F43076026
:100210004D68012D05D0022D03D0112D01D0122DD6
:100220000ED18568CF68A543B7402F4387604768E4
:100230006546AF430D79ED06ED0F9D403D434560AA
:10024000C568A5438C68B4402C43C4604C68E40086
:1002500044D5264CA56901263543A561A4699D08AE
:1002600034400094224CAD002F19BC689D072E0F1E
:100270000F25B540AC430925ED06A84201D1002564
:100280000AE01C4DA84201D1012505E01A4DA84203
:1002900001D1022500E00525B5402543BD60174C7E
:1002A00025684E689543F60300D5154325606568BB
:1002B0004E689543B60300D515436560A5684E6842
:1002C0009543F60200D51543A560E5684E68954351
:1002D000B60200E002E000D51543E5605B1C0A6849
:1002E0001546DA4000D070E7F8BD0000001002406B
:1002F00000000140000400480008004800040140DC
:10030000002A01D08161704781627047014800680E
:10031000704700000000002002480168491C01608D
:10032000704700000000002010B506480168102248
:1003300011430160002000F007F800F017F80020DA
:1003400010BD00000020024010B5044600F0DAF8AD
:100350007D21C900FFF7EAFE00F00AFB00222146DA
:10036000501E00F021F8002010BD000008B508481C
:100370008169012211438161816911400091C26943
:1003800001040A43C261C0690840009008BD000032
:1003900000100240C106C90E0120884001490860D2
:1003A0007047000000E100E010B500F04FFB10BD09
:1003B000F8B505464E480E460068C007C00FB0426B
:1003C0000AD24B480168490849003143016000687E
:1003D000C007C00FB04270D12878464C800705D5C1
:1003E0006068F0218843A968084360602878C007E6
:1003F00053D06868012817D0022818D0032819D0D4
:1004000021688907002958DA616889088900014351
:100410006160FFF77BFF69680746012913D0022955
:100420001DD0032927D034E021688903EAE7216839
:100430008901E7E7616BC903E4E7FFF767FFC11BC9
:100440002D48814223D860680007800F0128F4D12D
:1004500023E0FFF75BFFC11B2748814217D8606884
:100460000007800F0228F4D117E0FFF74FFFC11BF0
:10047000214881420BD860680007800F0328F4D11F
:100480000BE0FFF743FFC11B1B48814201D903204A
:10049000F8BD60680007800FF3D115480168C907EF
:1004A000C90FB1420BD901684908490031430160C5
:1004B0000068C007C00FB04201D00120F8BD287805
:1004C000400706D56068072109028843E9680843A8
:1004D000606000F01DF86168084A0906090F515C68
:1004E000C840074908600020FFF72EFF0020F8BD34
:1004F000002002400010024088130000640B000836
:10050000040000200148006870470000040000203B
:1005100030B516A30FCB89B06C460FC417A30FCB11
:100520000FC41A494A680C20144604401848042C89
:1005300005D0184B082C04D00C2C00D1184609B05B
:1005400030BD9402240F6D462C5DC96A04AD0907C5
:10055000090FD203695C920F022A02D0032A00D14C
:100560001846FFF7E3FD6043E9E7000002030405D6
:10057000060708090A0B0C0D0E0F101001020304E8
:1005800005060708090A0B0C0D0E0F10001002409B
:1005900000127A00006CDC02FEB504460078F04ED2
:1005A000F04DC00748D068680007800F01281FD0B1
:1005B00068680007800F022804D16868C003800FB4
:1005C000022815D06168012919D001208004002972
:1005D00001D0052917D02968B143296029688143D2
:1005E0002960606800281BD0FFF790FE074613E0E3
:1005F0002868800320D56068002876D01CE0286831
:1006000030432860EDE7296801432960F7E7FFF7E9
:100610007DFEC01B642869D828688003F7D50BE0ED
:10062000FFF774FE074604E0FFF770FEC01B642866
:10063000F1D828688003F7D4207880073ED5686811
:100640000007800F14D068680007800F022804D1CB
:100650006868C003800F01280AD0E0680028286875
:100660001DD0012108432860FFF750FE07460BE02C
:10067000286880070BD5E068012836D107E0FFF72E
:1006800045FEC01B0228C6D828688007F7D5286811
:10069000F82188432169C900084328600EE040081A
:1006A00040002860FFF732FE074604E0FFF72EFE09
:1006B000C01B0228AFD828688007F7D4207800072D
:1006C00024D5E0690028686A11D0012108436862D6
:1006D000FFF71CFE074604E0FFF718FEC01B0228C8
:1006E00099D8686A8007F7D510E036E1D1E0400874
:1006F00040006862FFF70AFE074604E0FFF706FEC7
:10070000C01B022887D8686A8007F7D4207804279E
:100710004007002861DA00200190E869C00008D491
:10072000E969B8060143E961E969014001200091E6
:1007300001908D480168C90511D4016882151143E3
:100740000160FFF7E3FD009005E0FFF7DFFD009992
:10075000401A642897D884480068C005F5D5A06879
:1007600001280AD0002801D0052811D0286A4008A5
:1007700040002862286AB84302E0286A0121084341
:100780002862A068002812D0FFF7C0FD00900AE0A0
:10079000286A38432862F0E7FFF7B8FD0099411A4C
:1007A0007248814275D8286A8007F5D50DE0FFF7B9
:1007B000ADFD009006E0FFF7A9FD0099411A6B48D6
:1007C000814266D8286A8007F5D40198002804D0B1
:1007D000E969012000078143E9612078C00635D529
:1007E000606901280CD0401D686B24D038436863D1
:1007F000686B400840006863FFF788FD074622E009
:10080000686B38436863686B012108436863FFF7CE
:100810007DFD074604E0FFF779FDC01B022838D8AC
:10082000686B8007F7D5686BF8218843A169C90018
:10083000084368630AE0B8436863F4E7FFF766FDBE
:10084000C01B022825D8686B8007F7D42078800663
:1008500037D568680007800F032813D06868000741
:10086000800F022804D16868C003800F032809D0D4
:10087000206A0028686B16D030436863FFF746FD96
:1008800006460CE0686BC0031BD5206A012864D1C2
:1008900017E05BE0FFF73AFD801B022856D8686B33
:1008A000C003F7D50DE0B0436863FFF72FFD0646A0
:1008B00004E0FFF72BFD801B022847D8686BC003BC
:1008C000F7D4606A002846D069680907890F0229B1
:1008D00043D0012636060228286805D0B043286098
:1008E000FFF714FD044633E0B0432860FFF70EFD28
:1008F000074604E0FFF70AFDC01B022826D8286837
:100900008001F7D4E86A216B000900010843E8621E
:10091000A16AE06A084369687B22D20391430843D5
:100920006860286830432860FFF7F0FC044604E064
:10093000FFF7ECFC001B022808D828688001F7D5D7
:1009400009E0FFF7E3FC001B022801D90320FEBDEC
:1009500028688001F5D40020FEBD0120FEBD000006
:1009600000000100001002400070004088130000E9
:10097000094910B5401E884201D9012010BD074C1D
:1009800060610321081F00F061F80020A0610720CA
:100990002061002010BD0000FFFFFF0000E000E02C
:1009A00070B586B014216846FFF7DDFB2348426925
:1009B000012189050A43426142690A400592426960
:1009C00049110A43426142690A400592426949005D
:1009D0000A43426140691A4E0840059000220821EE
:1009E0003046FFF78DFC174800900220019003204D
:1009F0000390002401250920029469460495C0064D
:100A0000FFF7E0FB082000900294694601950394EB
:100A10003046FFF7D7FB102000900B480190694645
:100A200002943046FFF7CEFB002211460720FFF765
:100A3000BBFC0720FFF7AEFC06B070BD0010024003
:100A40000004004804800000000011108307FF220A
:100A5000DB0E9A408907090E994000280BDA00073F
:100A6000000F0838830808489B001818C36993438F
:100A70000B43C3617047830804489B001B18186828
:100A8000904308431860704700ED00E000E400E088
:100A90007047704710B5FFF73FFC10BD10B592B01E
:100AA00034216846FFF75FFB00240F94022000907A
:100AB0000D9401200E94039010200994049010943A
:100AC0006846FFF769FD07200D900E940F940021F2
:100AD00010940DA8FFF76CFC12B010BD134801680C
:100AE0000122114301604168114A114041600168CF
:100AF000104A114001600168012292049143016093
:100B000041683F22120491434160C16A0909090109
:100B1000C162016BFF22D43291430163416B4908EA
:100B200049004163002181607047000000100240CD
:100B30000CB8FF08FFFFF6FE02E008C8121F08C14C
:100B4000002AFAD170477047002001E001C1121F4E
:100B5000002AFBD17047FFF7E7FBFFF79FFFFFF786
:100B60001FFFFEE700000000000000000102030478
:100B700006070809940B0008000000200800000088
:100B8000380B00089C0B000808000020000400003F
:0C0B9000480B00080000000000127A0072
:04000005080000C12E
:00000001FF
