:020000040800F2
:1000000008040020D5000008590A0008B9090008B2
:1000100000000000000000000000000000000000E0
:10002000000000000000000000000000A30A00081B
:100030000000000000000000A10A0008A50A000856
:100040000501000805010008050100080501000878
:100050000501000805010008050100080501000868
:100060000501000805010008050100080501000858
:100070000501000805010008050100080501000848
:100080000501000800000000000000000501000854
:100090000000000005010008050100080501000836
:1000A0000000000005010008050100080501000826
:1000B0000501000800000000050100080501000816
:1000C0000348854600F05AF800480047730B0008C3
:1000D000080400200C4880F308880C480168090EC9
:1000E0000B4A914205D10B480B4901600B480C4962
:1000F00001600C4880470C480047FEE7FEE7FEE73A
:10010000FEE7FEE7FEE70000080400200400000010
:100110001F00000018100240010000000000014014
:1001200000000000F90A0008C100000830B50B46C5
:10013000014600202022012409E00D46D5409D42C1
:1001400005D31D469540491B254695404019154647
:10015000521E002DF1DC30BDD2B201E00270401C15
:10016000491EFBD270470022F6E710B513460A4637
:1001700004461946FFF7F0FF204610BD064C012546
:10018000064E05E0E36807CC2B430C3C984710343F
:10019000B442F7D3FFF798FF900B0008B00B0008AC
:1001A000F8B5002389E001249C402A46A446224059
:1001B0007ED04C68022C01D0122C0CD1DC08A4009B
:1001C00027183C6A5D07ED0E0F26AE40B4430E695A
:1001D000AE4026433E6205685E000324B4400F79BA
:1001E000A543BF07BF0FB7402F4307604D68012DE0
:1001F00005D0022D03D0112D01D0122D0ED185680E
:10020000CF68A543B7402F43876047686546AF4333
:100210000D79ED06ED0F9D403D434560C568A54352
:100220008C68B4402C43C4604C68E40044D5264C30
:10023000A56901263543A561A4699D083440009451
:10024000224CAD002F19BC689D072E0F0F25B5401D
:10025000AC430925ED06A84201D100250AE01C4D5A
:10026000A84201D1012505E01A4DA84201D102257D
:1002700000E00525B5402543BD60174C25684E6854
:100280009543F60300D51543256065684E68954390
:10029000B60300D515436560A5684E689543F60220
:1002A00000D51543A560E5684E689543B60200E0A9
:1002B00002E000D51543E5605B1C0A681546DA408C
:1002C00000D070E7F8BD00000010024000000140BF
:1002D000000400480008004800040140002A01D042
:1002E0008161704781627047014800687047000073
:1002F0000000002002480168491C016070470000AE
:100300000000002010B5064801681022114301606A
:10031000002000F007F800F017F8002010BD0000E2
:100320000020024010B5044600F0D0F87D21C9003D
:10033000FFF7FCFE00F028FB00222146501E00F0D3
:1003400017F8002010BD000008B508488169012297
:1003500011438161816911400091C26901040A431E
:10036000C261C0690840009008BD00000010024052
:1003700010B500F073FB10BDF8B505464E480E46AB
:100380000068C007C00FB0420AD24B480168490854
:100390004900314301600068C007C00FB04270D10E
:1003A0002878464C800705D56068F0218843A96805
:1003B000084360602878C00753D06868012817D0C8
:1003C000022818D0032819D021688907002958DA93
:1003D00061688908890001436160FFF785FF6968EA
:1003E0000746012913D002291DD0032927D034E064
:1003F00021688903EAE721688901E7E7616BC9039E
:10040000E4E7FFF771FFC11B2D48814223D86068E4
:100410000007800F0128F4D123E0FFF765FFC11B1F
:100420002748814217D860680007800F0228F4D15E
:1004300017E0FFF759FFC11B214881420BD86068C4
:100440000007800F0328F4D10BE0FFF74DFFC11B1D
:100450001B48814201D90320F8BD60680007800F66
:10046000F3D115480168C907C90FB1420BD901681A
:1004700049084900314301600068C007C00FB0421D
:1004800001D00120F8BD2878400706D56068072113
:1004900009028843E9680843606000F01DF861685C
:1004A000084A0906090F515CC84007490860002046
:1004B000FFF738FF0020F8BD002002400010024086
:1004C00088130000800B0008040000200148006829
:1004D000704700000400002030B516A30FCB89B090
:1004E0006C460FC417A30FCB0FC41A494A680C20DF
:1004F000144604401848042C05D0184B082C04D08E
:100500000C2C00D1184609B030BD9402240F6D4662
:100510002C5DC96A04AD0907090FD203695C920F0B
:10052000022A02D0032A00D11846FFF7FFFD6043DC
:10053000E9E7000002030405060708090A0B0C0D91
:100540000E0F10100102030405060708090A0B0C20
:100550000D0E0F100010024000127A00006CDC0239
:1005600070B586B0022001900320039000200D4654
:10057000FF2101310D4C02900091049061691646F3
:100580000120400401436161616901400591092036
:100590006946C006FFF704FE60687F2109068843AC
:1005A00035432843606006B070BD00000010024073
:1005B000FEB504460078F04EF04DC00748D068689C
:1005C0000007800F01281FD068680007800F0228ED
:1005D00004D16868C003800F022815D06168012922
:1005E00019D001208004002901D0052917D02968DD
:1005F000B1432960296881432960606800281BD0C5
:10060000FFF772FE074613E02868800320D5606874
:10061000002876D01CE0286830432860EDE7296880
:1006200001432960F7E7FFF75FFEC01B642869D824
:1006300028688003F7D50BE0FFF756FE074604E075
:10064000FFF752FEC01B6428F1D828688003F7D456
:10065000207880073ED568680007800F14D068684E
:100660000007800F022804D16868C003800F0128AA
:100670000AD0E068002828681DD0012108432860BE
:10068000FFF732FE07460BE0286880070BD5E068CD
:10069000012836D107E0FFF727FEC01B0228C6D885
:1006A00028688007F7D52868F82188432169C900A0
:1006B000084328600EE0400840002860FFF714FE61
:1006C000074604E0FFF710FEC01B0228AFD82868D9
:1006D0008007F7D42078000724D5E0690028686AED
:1006E00011D0012108436862FFF7FEFD074604E0D0
:1006F000FFF7FAFDC01B022899D8686A8007F7D572
:1007000010E036E1D1E0400840006862FFF7ECFD00
:10071000074604E0FFF7E8FDC01B022887D8686A97
:100720008007F7D4207804274007002861DA0020EA
:100730000190E869C00008D4E969B8060143E9619D
:10074000E96901400120009101908D480168C905C7
:1007500011D40168821511430160FFF7C5FD0090B7
:1007600005E0FFF7C1FD0099401A642897D8844836
:100770000068C005F5D5A06801280AD0002801D07E
:10078000052811D0286A400840002862286AB8432A
:1007900002E0286A012108432862A068002812D0DC
:1007A000FFF7A2FD00900AE0286A38432862F0E7CC
:1007B000FFF79AFD0099411A7248814275D8286A5C
:1007C0008007F5D50DE0FFF78FFD009006E0FFF7FD
:1007D0008BFD0099411A6B48814266D8286A8007D0
:1007E000F5D40198002804D0E9690120000781436D
:1007F000E9612078C00635D5606901280CD0401D1C
:10080000686B24D038436863686B400840006863B5
:10081000FFF76AFD074622E0686B38436863686B40
:10082000012108436863FFF75FFD074604E0FFF717
:100830005BFDC01B022838D8686B8007F7D5686B52
:10084000F8218843A169C900084368630AE0B843F6
:100850006863F4E7FFF748FDC01B022825D8686BE2
:100860008007F7D42078800637D568680007800FA6
:10087000032813D068680007800F022804D1686835
:10088000C003800F032809D0206A0028686B16D0A7
:1008900030436863FFF728FD06460CE0686BC00331
:1008A0001BD5206A012864D117E05BE0FFF71CFD2F
:1008B000801B022856D8686BC003F7D50DE0B04303
:1008C0006863FFF711FD064604E0FFF70DFD801B8E
:1008D000022847D8686BC003F7D4606A002846D066
:1008E00069680907890F022943D0012636060228C4
:1008F000286805D0B0432860FFF7F6FC044633E0D3
:10090000B0432860FFF7F0FC074604E0FFF7ECFC7B
:10091000C01B022826D828688001F7D4E86A216B1A
:10092000000900010843E862A16AE06A08436968B7
:100930007B22D203914308436860286830432860D3
:10094000FFF7D2FC044604E0FFF7CEFC001B0228B0
:1009500008D828688001F7D509E0FFF7C5FC001B1F
:10096000022801D90320FEBD28688001F5D40020AB
:10097000FEBD0120FEBD000000000100001002408D
:100980000070004088130000094910B5401E8842DD
:1009900001D9012010BD074C60610321081F00F040
:1009A0005DF80020A06107202061002010BD00003C
:1009B000FFFFFF0000E000E0FEE70000F0B587B0B9
:1009C00014216846FFF7CFFB2048426901218905C1
:1009D0000A43426142690A400592426949110A4349
:1009E000426142690A400592426949000A434261F4
:1009F000406900220840059008211548FFF76EFC69
:100A00001448009003200927022500240126FF0630
:100A1000039001950294694604963846FFF7C0FB9F
:100A2000E8010090029403946946019504943846C5
:100A3000FFF7B6FB082000900294694601960394E4
:100A40000348FFF7ADFB07B0F0BD00000010024007
:100A50000004004804800000704700008307FF2264
:100A6000DB0E9A408907090E994000280BDA00072F
:100A7000000F0838830808489B001818C36993437F
:100A80000B43C3617047830804489B001B18186818
:100A9000904308431860704700ED00E000E400E078
:100AA0007047704710B5FFF725FC10BD10B592B028
:100AB00034216846FFF757FB00240F940220009072
:100AC0000D9401200E94039010200994049010942A
:100AD0006846FFF76DFD07200D900E940F940021DE
:100AE00010940DA8FFF748FC00220121890610464A
:100AF000FFF736FD12B010BD134801680122114303
:100B000001604168114A114041600168104A11407A
:100B100001600168012292049143016041683F2213
:100B2000120491434160C16A09090901C162016B64
:100B3000FF22D43291430163416B4908490041636C
:100B40000021816070470000001002400CB8FF08CF
:100B5000FFFFF6FE02E008C8121F08C1002AFAD102
:100B600070477047002001E001C1121F002AFBD12D
:100B70007047FFF7C7FBFFF799FFFFF71FFFFEE77F
:100B8000000000000000000001020304060708093D
:100B9000B00B00080000002008000000540B000803
:100BA000B80B00080800002000040000640B0008D7
:080BB0000000000000127A00B1
:04000005080000C12E
:00000001FF
